{
  "contractName": "TheFunixCryptoSim",
  "abi": [
    {
      "inputs": [],
      "stateMutability": "nonpayable",
      "type": "constructor"
    },
    {
      "anonymous": false,
      "inputs": [
        {
          "indexed": true,
          "internalType": "address",
          "name": "owner",
          "type": "address"
        },
        {
          "indexed": true,
          "internalType": "address",
          "name": "approved",
          "type": "address"
        },
        {
          "indexed": true,
          "internalType": "uint256",
          "name": "tokenId",
          "type": "uint256"
        }
      ],
      "name": "Approval",
      "type": "event"
    },
    {
      "anonymous": false,
      "inputs": [
        {
          "indexed": true,
          "internalType": "address",
          "name": "owner",
          "type": "address"
        },
        {
          "indexed": true,
          "internalType": "address",
          "name": "operator",
          "type": "address"
        },
        {
          "indexed": false,
          "internalType": "bool",
          "name": "approved",
          "type": "bool"
        }
      ],
      "name": "ApprovalForAll",
      "type": "event"
    },
    {
      "anonymous": false,
      "inputs": [
        {
          "indexed": false,
          "internalType": "address",
          "name": "owner",
          "type": "address"
        },
        {
          "indexed": false,
          "internalType": "uint256",
          "name": "id",
          "type": "uint256"
        },
        {
          "indexed": false,
          "internalType": "uint256",
          "name": "matronId",
          "type": "uint256"
        },
        {
          "indexed": false,
          "internalType": "uint256",
          "name": "sireId",
          "type": "uint256"
        },
        {
          "components": [
            {
              "internalType": "uint8",
              "name": "body",
              "type": "uint8"
            },
            {
              "internalType": "uint8",
              "name": "eye",
              "type": "uint8"
            },
            {
              "internalType": "uint8",
              "name": "hairstyle",
              "type": "uint8"
            },
            {
              "internalType": "uint8",
              "name": "outfit",
              "type": "uint8"
            },
            {
              "internalType": "uint8",
              "name": "accessory",
              "type": "uint8"
            },
            {
              "internalType": "uint8",
              "name": "hiddenGenes",
              "type": "uint8"
            },
            {
              "internalType": "uint8",
              "name": "generation",
              "type": "uint8"
            }
          ],
          "indexed": false,
          "internalType": "struct TheFunixCryptoSim.SimAttributes",
          "name": "attributes",
          "type": "tuple"
        }
      ],
      "name": "Birth",
      "type": "event"
    },
    {
      "anonymous": false,
      "inputs": [
        {
          "indexed": true,
          "internalType": "address",
          "name": "previousOwner",
          "type": "address"
        },
        {
          "indexed": true,
          "internalType": "address",
          "name": "newOwner",
          "type": "address"
        }
      ],
      "name": "OwnershipTransferred",
      "type": "event"
    },
    {
      "anonymous": false,
      "inputs": [
        {
          "indexed": true,
          "internalType": "address",
          "name": "from",
          "type": "address"
        },
        {
          "indexed": true,
          "internalType": "address",
          "name": "to",
          "type": "address"
        },
        {
          "indexed": true,
          "internalType": "uint256",
          "name": "tokenId",
          "type": "uint256"
        }
      ],
      "name": "Transfer",
      "type": "event"
    },
    {
      "inputs": [
        {
          "internalType": "address",
          "name": "to",
          "type": "address"
        },
        {
          "internalType": "uint256",
          "name": "tokenId",
          "type": "uint256"
        }
      ],
      "name": "approve",
      "outputs": [],
      "stateMutability": "nonpayable",
      "type": "function"
    },
    {
      "inputs": [
        {
          "internalType": "address",
          "name": "owner",
          "type": "address"
        }
      ],
      "name": "balanceOf",
      "outputs": [
        {
          "internalType": "uint256",
          "name": "",
          "type": "uint256"
        }
      ],
      "stateMutability": "view",
      "type": "function",
      "constant": true
    },
    {
      "inputs": [
        {
          "internalType": "uint256",
          "name": "tokenId",
          "type": "uint256"
        }
      ],
      "name": "getApproved",
      "outputs": [
        {
          "internalType": "address",
          "name": "",
          "type": "address"
        }
      ],
      "stateMutability": "view",
      "type": "function",
      "constant": true
    },
    {
      "inputs": [
        {
          "internalType": "address",
          "name": "owner",
          "type": "address"
        },
        {
          "internalType": "address",
          "name": "operator",
          "type": "address"
        }
      ],
      "name": "isApprovedForAll",
      "outputs": [
        {
          "internalType": "bool",
          "name": "",
          "type": "bool"
        }
      ],
      "stateMutability": "view",
      "type": "function",
      "constant": true
    },
    {
      "inputs": [],
      "name": "name",
      "outputs": [
        {
          "internalType": "string",
          "name": "",
          "type": "string"
        }
      ],
      "stateMutability": "view",
      "type": "function",
      "constant": true
    },
    {
      "inputs": [],
      "name": "owner",
      "outputs": [
        {
          "internalType": "address",
          "name": "",
          "type": "address"
        }
      ],
      "stateMutability": "view",
      "type": "function",
      "constant": true
    },
    {
      "inputs": [
        {
          "internalType": "uint256",
          "name": "tokenId",
          "type": "uint256"
        }
      ],
      "name": "ownerOf",
      "outputs": [
        {
          "internalType": "address",
          "name": "",
          "type": "address"
        }
      ],
      "stateMutability": "view",
      "type": "function",
      "constant": true
    },
    {
      "inputs": [],
      "name": "renounceOwnership",
      "outputs": [],
      "stateMutability": "nonpayable",
      "type": "function"
    },
    {
      "inputs": [
        {
          "internalType": "address",
          "name": "from",
          "type": "address"
        },
        {
          "internalType": "address",
          "name": "to",
          "type": "address"
        },
        {
          "internalType": "uint256",
          "name": "tokenId",
          "type": "uint256"
        }
      ],
      "name": "safeTransferFrom",
      "outputs": [],
      "stateMutability": "nonpayable",
      "type": "function"
    },
    {
      "inputs": [
        {
          "internalType": "address",
          "name": "from",
          "type": "address"
        },
        {
          "internalType": "address",
          "name": "to",
          "type": "address"
        },
        {
          "internalType": "uint256",
          "name": "tokenId",
          "type": "uint256"
        },
        {
          "internalType": "bytes",
          "name": "data",
          "type": "bytes"
        }
      ],
      "name": "safeTransferFrom",
      "outputs": [],
      "stateMutability": "nonpayable",
      "type": "function"
    },
    {
      "inputs": [
        {
          "internalType": "address",
          "name": "operator",
          "type": "address"
        },
        {
          "internalType": "bool",
          "name": "approved",
          "type": "bool"
        }
      ],
      "name": "setApprovalForAll",
      "outputs": [],
      "stateMutability": "nonpayable",
      "type": "function"
    },
    {
      "inputs": [
        {
          "internalType": "uint256",
          "name": "",
          "type": "uint256"
        }
      ],
      "name": "sims",
      "outputs": [
        {
          "components": [
            {
              "internalType": "uint8",
              "name": "body",
              "type": "uint8"
            },
            {
              "internalType": "uint8",
              "name": "eye",
              "type": "uint8"
            },
            {
              "internalType": "uint8",
              "name": "hairstyle",
              "type": "uint8"
            },
            {
              "internalType": "uint8",
              "name": "outfit",
              "type": "uint8"
            },
            {
              "internalType": "uint8",
              "name": "accessory",
              "type": "uint8"
            },
            {
              "internalType": "uint8",
              "name": "hiddenGenes",
              "type": "uint8"
            },
            {
              "internalType": "uint8",
              "name": "generation",
              "type": "uint8"
            }
          ],
          "internalType": "struct TheFunixCryptoSim.SimAttributes",
          "name": "attributes",
          "type": "tuple"
        },
        {
          "internalType": "uint256",
          "name": "matronId",
          "type": "uint256"
        },
        {
          "internalType": "uint256",
          "name": "sireId",
          "type": "uint256"
        }
      ],
      "stateMutability": "view",
      "type": "function",
      "constant": true
    },
    {
      "inputs": [
        {
          "internalType": "bytes4",
          "name": "interfaceId",
          "type": "bytes4"
        }
      ],
      "name": "supportsInterface",
      "outputs": [
        {
          "internalType": "bool",
          "name": "",
          "type": "bool"
        }
      ],
      "stateMutability": "view",
      "type": "function",
      "constant": true
    },
    {
      "inputs": [],
      "name": "symbol",
      "outputs": [
        {
          "internalType": "string",
          "name": "",
          "type": "string"
        }
      ],
      "stateMutability": "view",
      "type": "function",
      "constant": true
    },
    {
      "inputs": [
        {
          "internalType": "uint256",
          "name": "tokenId",
          "type": "uint256"
        }
      ],
      "name": "tokenURI",
      "outputs": [
        {
          "internalType": "string",
          "name": "",
          "type": "string"
        }
      ],
      "stateMutability": "view",
      "type": "function",
      "constant": true
    },
    {
      "inputs": [
        {
          "internalType": "address",
          "name": "from",
          "type": "address"
        },
        {
          "internalType": "address",
          "name": "to",
          "type": "address"
        },
        {
          "internalType": "uint256",
          "name": "tokenId",
          "type": "uint256"
        }
      ],
      "name": "transferFrom",
      "outputs": [],
      "stateMutability": "nonpayable",
      "type": "function"
    },
    {
      "inputs": [
        {
          "internalType": "address",
          "name": "newOwner",
          "type": "address"
        }
      ],
      "name": "transferOwnership",
      "outputs": [],
      "stateMutability": "nonpayable",
      "type": "function"
    },
    {
      "inputs": [],
      "name": "buySim",
      "outputs": [
        {
          "internalType": "uint256",
          "name": "",
          "type": "uint256"
        }
      ],
      "stateMutability": "payable",
      "type": "function",
      "payable": true
    },
    {
      "inputs": [
        {
          "internalType": "uint256",
          "name": "matronId",
          "type": "uint256"
        },
        {
          "internalType": "uint256",
          "name": "sireId",
          "type": "uint256"
        }
      ],
      "name": "breedSim",
      "outputs": [
        {
          "internalType": "uint256",
          "name": "",
          "type": "uint256"
        }
      ],
      "stateMutability": "payable",
      "type": "function",
      "payable": true
    },
    {
      "inputs": [
        {
          "internalType": "uint256",
          "name": "simId",
          "type": "uint256"
        }
      ],
      "name": "getSimDetails",
      "outputs": [
        {
          "internalType": "uint256",
          "name": "",
          "type": "uint256"
        },
        {
          "components": [
            {
              "internalType": "uint8",
              "name": "body",
              "type": "uint8"
            },
            {
              "internalType": "uint8",
              "name": "eye",
              "type": "uint8"
            },
            {
              "internalType": "uint8",
              "name": "hairstyle",
              "type": "uint8"
            },
            {
              "internalType": "uint8",
              "name": "outfit",
              "type": "uint8"
            },
            {
              "internalType": "uint8",
              "name": "accessory",
              "type": "uint8"
            },
            {
              "internalType": "uint8",
              "name": "hiddenGenes",
              "type": "uint8"
            },
            {
              "internalType": "uint8",
              "name": "generation",
              "type": "uint8"
            }
          ],
          "internalType": "struct TheFunixCryptoSim.SimAttributes",
          "name": "",
          "type": "tuple"
        },
        {
          "internalType": "uint256",
          "name": "",
          "type": "uint256"
        },
        {
          "internalType": "uint256",
          "name": "",
          "type": "uint256"
        }
      ],
      "stateMutability": "view",
      "type": "function",
      "constant": true
    },
    {
      "inputs": [],
      "name": "ownedSims",
      "outputs": [
        {
          "internalType": "uint256[]",
          "name": "",
          "type": "uint256[]"
        }
      ],
      "stateMutability": "view",
      "type": "function",
      "constant": true
    }
  ],
  "bytecode": "0x60806040523480156200001157600080fd5b506040518060400160405280601281526020017f54686546756e697843727970746f53696d7300000000000000000000000000008152506040518060400160405280600381526020017f4643530000000000000000000000000000000000000000000000000000000000815250816000908051906020019062000096929190620007a0565b508060019080519060200190620000af929190620007a0565b505050620000d2620000c6620000e860201b60201c565b620000f060201b60201c565b620000e2620001b660201b60201c565b62000a40565b600033905090565b6000600660009054906101000a900473ffffffffffffffffffffffffffffffffffffffff16905081600660006101000a81548173ffffffffffffffffffffffffffffffffffffffff021916908373ffffffffffffffffffffffffffffffffffffffff1602179055508173ffffffffffffffffffffffffffffffffffffffff168173ffffffffffffffffffffffffffffffffffffffff167f8be0079c531659141344cd1fd0a4f28419497f9722a3daafe3b4186f6b6457e060405160405180910390a35050565b60006040518060e00160405280600060ff168152602001600060ff168152602001600060ff168152602001600060ff168152602001600060ff168152602001600060ff168152602001600060ff16815250905060006040518060e00160405280600360ff168152602001600760ff168152602001607f60ff168152602001601f60ff168152602001601f60ff168152602001600060ff168152602001600060ff16815250905060076040518060600160405280848152602001600081526020016000815250908060018154018082558091505060019003906000526020600020906003020160009091909190915060008201518160000160008201518160000160006101000a81548160ff021916908360ff16021790555060208201518160000160016101000a81548160ff021916908360ff16021790555060408201518160000160026101000a81548160ff021916908360ff16021790555060608201518160000160036101000a81548160ff021916908360ff16021790555060808201518160000160046101000a81548160ff021916908360ff16021790555060a08201518160000160056101000a81548160ff021916908360ff16021790555060c08201518160000160066101000a81548160ff021916908360ff160217905550505060208201518160010155604082015181600201555050620003c43360006200053060201b6200111b1760201c565b60076040518060600160405280838152602001600081526020016000815250908060018154018082558091505060019003906000526020600020906003020160009091909190915060008201518160000160008201518160000160006101000a81548160ff021916908360ff16021790555060208201518160000160016101000a81548160ff021916908360ff16021790555060408201518160000160026101000a81548160ff021916908360ff16021790555060608201518160000160036101000a81548160ff021916908360ff16021790555060808201518160000160046101000a81548160ff021916908360ff16021790555060a08201518160000160056101000a81548160ff021916908360ff16021790555060c08201518160000160066101000a81548160ff021916908360ff1602179055505050602082015181600101556040820151816002015550506200052c3360016200053060201b6200111b1760201c565b5050565b600073ffffffffffffffffffffffffffffffffffffffff168273ffffffffffffffffffffffffffffffffffffffff161415620005a3576040517f08c379a00000000000000000000000000000000000000000000000000000000081526004016200059a90620008c0565b60405180910390fd5b620005b4816200072a60201b60201c565b15620005f7576040517f08c379a0000000000000000000000000000000000000000000000000000000008152600401620005ee906200089e565b60405180910390fd5b6200060b600083836200079660201b60201c565b6001600360008473ffffffffffffffffffffffffffffffffffffffff1673ffffffffffffffffffffffffffffffffffffffff16815260200190815260200160002060008282546200065d9190620008f3565b92505081905550816002600083815260200190815260200160002060006101000a81548173ffffffffffffffffffffffffffffffffffffffff021916908373ffffffffffffffffffffffffffffffffffffffff160217905550808273ffffffffffffffffffffffffffffffffffffffff16600073ffffffffffffffffffffffffffffffffffffffff167fddf252ad1be2c89b69c2b068fc378daa952ba7f163c4a11628f55a4df523b3ef60405160405180910390a462000726600083836200079b60201b60201c565b5050565b60008073ffffffffffffffffffffffffffffffffffffffff166002600084815260200190815260200160002060009054906101000a900473ffffffffffffffffffffffffffffffffffffffff1673ffffffffffffffffffffffffffffffffffffffff1614159050919050565b505050565b505050565b828054620007ae906200095a565b90600052602060002090601f016020900481019282620007d257600085556200081e565b82601f10620007ed57805160ff19168380011785556200081e565b828001600101855582156200081e579182015b828111156200081d57825182559160200191906001019062000800565b5b5090506200082d919062000831565b5090565b5b808211156200084c57600081600090555060010162000832565b5090565b60006200085f601c83620008e2565b91506200086c82620009ee565b602082019050919050565b600062000886602083620008e2565b9150620008938262000a17565b602082019050919050565b60006020820190508181036000830152620008b98162000850565b9050919050565b60006020820190508181036000830152620008db8162000877565b9050919050565b600082825260208201905092915050565b6000620009008262000950565b91506200090d8362000950565b9250827fffffffffffffffffffffffffffffffffffffffffffffffffffffffffffffffff0382111562000945576200094462000990565b5b828201905092915050565b6000819050919050565b600060028204905060018216806200097357607f821691505b602082108114156200098a5762000989620009bf565b5b50919050565b7f4e487b7100000000000000000000000000000000000000000000000000000000600052601160045260246000fd5b7f4e487b7100000000000000000000000000000000000000000000000000000000600052602260045260246000fd5b7f4552433732313a20746f6b656e20616c7265616479206d696e74656400000000600082015250565b7f4552433732313a206d696e7420746f20746865207a65726f2061646472657373600082015250565b613bbf8062000a506000396000f3fe60806040526004361061012a5760003560e01c8063715018a6116100ab578063b88d4fde1161006f578063b88d4fde146103fc578063c87b56dd14610425578063d561713914610462578063e985e9c514610492578063f2fde38b146104cf578063f498d256146104f85761012a565b8063715018a6146103265780638da5cb5b1461033d57806395d89b41146103685780639c055ed814610393578063a22cb465146103d35761012a565b80631e4e704b116100f25780631e4e704b1461021b57806323b872dd1461025a57806342842e0e146102835780636352211e146102ac57806370a08231146102e95761012a565b806301ffc9a71461012f57806306fdde031461016c578063081812fc14610197578063095ea7b3146101d4578063102e1c71146101fd575b600080fd5b34801561013b57600080fd5b5061015660048036038101906101519190612b2d565b610523565b604051610163919061309e565b60405180910390f35b34801561017857600080fd5b50610181610605565b60405161018e91906130b9565b60405180910390f35b3480156101a357600080fd5b506101be60048036038101906101b99190612b7f565b610697565b6040516101cb9190612fc1565b60405180910390f35b3480156101e057600080fd5b506101fb60048036038101906101f69190612af1565b6106dd565b005b6102056107f5565b60405161021291906132b4565b60405180910390f35b34801561022757600080fd5b50610242600480360381019061023d9190612b7f565b610829565b6040516102519392919061327b565b60405180910390f35b34801561026657600080fd5b50610281600480360381019061027c91906129eb565b610938565b005b34801561028f57600080fd5b506102aa60048036038101906102a591906129eb565b610998565b005b3480156102b857600080fd5b506102d360048036038101906102ce9190612b7f565b6109b8565b6040516102e09190612fc1565b60405180910390f35b3480156102f557600080fd5b50610310600480360381019061030b9190612986565b610a6a565b60405161031d91906132b4565b60405180910390f35b34801561033257600080fd5b5061033b610b22565b005b34801561034957600080fd5b50610352610b36565b60405161035f9190612fc1565b60405180910390f35b34801561037457600080fd5b5061037d610b60565b60405161038a91906130b9565b60405180910390f35b34801561039f57600080fd5b506103ba60048036038101906103b59190612b7f565b610bf2565b6040516103ca94939291906132cf565b60405180910390f35b3480156103df57600080fd5b506103fa60048036038101906103f59190612ab5565b610d43565b005b34801561040857600080fd5b50610423600480360381019061041e9190612a3a565b610d59565b005b34801561043157600080fd5b5061044c60048036038101906104479190612b7f565b610dbb565b60405161045991906130b9565b60405180910390f35b61047c60048036038101906104779190612ba8565b610e23565b60405161048991906132b4565b60405180910390f35b34801561049e57600080fd5b506104b960048036038101906104b491906129af565b610e38565b6040516104c6919061309e565b60405180910390f35b3480156104db57600080fd5b506104f660048036038101906104f19190612986565b610ecc565b005b34801561050457600080fd5b5061050d610f50565b60405161051a919061307c565b60405180910390f35b60007f80ac58cd000000000000000000000000000000000000000000000000000000007bffffffffffffffffffffffffffffffffffffffffffffffffffffffff1916827bffffffffffffffffffffffffffffffffffffffffffffffffffffffff191614806105ee57507f5b5e139f000000000000000000000000000000000000000000000000000000007bffffffffffffffffffffffffffffffffffffffffffffffffffffffff1916827bffffffffffffffffffffffffffffffffffffffffffffffffffffffff1916145b806105fe57506105fd826112f5565b5b9050919050565b6060600080546106149061360d565b80601f01602080910402602001604051908101604052809291908181526020018280546106409061360d565b801561068d5780601f106106625761010080835404028352916020019161068d565b820191906000526020600020905b81548152906001019060200180831161067057829003601f168201915b5050505050905090565b60006106a28261135f565b6004600083815260200190815260200160002060009054906101000a900473ffffffffffffffffffffffffffffffffffffffff169050919050565b60006106e8826109b8565b90508073ffffffffffffffffffffffffffffffffffffffff168373ffffffffffffffffffffffffffffffffffffffff161415610759576040517f08c379a00000000000000000000000000000000000000000000000000000000081526004016107509061323b565b60405180910390fd5b8073ffffffffffffffffffffffffffffffffffffffff166107786113aa565b73ffffffffffffffffffffffffffffffffffffffff1614806107a757506107a6816107a16113aa565b610e38565b5b6107e6576040517f08c379a00000000000000000000000000000000000000000000000000000000081526004016107dd906131bb565b60405180910390fd5b6107f083836113b2565b505050565b60006108246000600780549050600160078054905061081491906134e2565b61081e91906136b9565b3361146b565b905090565b6007818154811061083957600080fd5b9060005260206000209060030201600091509050806000016040518060e00160405290816000820160009054906101000a900460ff1660ff1660ff1681526020016000820160019054906101000a900460ff1660ff1660ff1681526020016000820160029054906101000a900460ff1660ff1660ff1681526020016000820160039054906101000a900460ff1660ff1660ff1681526020016000820160049054906101000a900460ff1660ff1660ff1681526020016000820160059054906101000a900460ff1660ff1660ff1681526020016000820160069054906101000a900460ff1660ff1660ff1681525050908060010154908060020154905083565b6109496109436113aa565b8261167f565b610988576040517f08c379a000000000000000000000000000000000000000000000000000000000815260040161097f9061325b565b60405180910390fd5b610993838383611714565b505050565b6109b383838360405180602001604052806000815250610d59565b505050565b6000806002600084815260200190815260200160002060009054906101000a900473ffffffffffffffffffffffffffffffffffffffff169050600073ffffffffffffffffffffffffffffffffffffffff168173ffffffffffffffffffffffffffffffffffffffff161415610a61576040517f08c379a0000000000000000000000000000000000000000000000000000000008152600401610a589061321b565b60405180910390fd5b80915050919050565b60008073ffffffffffffffffffffffffffffffffffffffff168273ffffffffffffffffffffffffffffffffffffffff161415610adb576040517f08c379a0000000000000000000000000000000000000000000000000000000008152600401610ad29061319b565b60405180910390fd5b600360008373ffffffffffffffffffffffffffffffffffffffff1673ffffffffffffffffffffffffffffffffffffffff168152602001908152602001600020549050919050565b610b2a61197b565b610b3460006119f9565b565b6000600660009054906101000a900473ffffffffffffffffffffffffffffffffffffffff16905090565b606060018054610b6f9061360d565b80601f0160208091040260200160405190810160405280929190818152602001828054610b9b9061360d565b8015610be85780601f10610bbd57610100808354040283529160200191610be8565b820191906000526020600020905b815481529060010190602001808311610bcb57829003601f168201915b5050505050905090565b6000610bfc612863565b600080600060078681548110610c3b577f4e487b7100000000000000000000000000000000000000000000000000000000600052603260045260246000fd5b90600052602060002090600302019050858160000182600101548360020154826040518060e00160405290816000820160009054906101000a900460ff1660ff1660ff1681526020016000820160019054906101000a900460ff1660ff1660ff1681526020016000820160029054906101000a900460ff1660ff1660ff1681526020016000820160039054906101000a900460ff1660ff1660ff1681526020016000820160049054906101000a900460ff1660ff1660ff1681526020016000820160059054906101000a900460ff1660ff1660ff1681526020016000820160069054906101000a900460ff1660ff1660ff168152505092509450945094509450509193509193565b610d55610d4e6113aa565b8383611abf565b5050565b610d6a610d646113aa565b8361167f565b610da9576040517f08c379a0000000000000000000000000000000000000000000000000000000008152600401610da09061325b565b60405180910390fd5b610db584848484611c2c565b50505050565b6060610dc68261135f565b6000610dd0611c88565b90506000815111610df05760405180602001604052806000815250610e1b565b80610dfa84611c9f565b604051602001610e0b929190612f9d565b6040516020818303038152906040525b915050919050565b6000610e3083833361146b565b905092915050565b6000600560008473ffffffffffffffffffffffffffffffffffffffff1673ffffffffffffffffffffffffffffffffffffffff16815260200190815260200160002060008373ffffffffffffffffffffffffffffffffffffffff1673ffffffffffffffffffffffffffffffffffffffff16815260200190815260200160002060009054906101000a900460ff16905092915050565b610ed461197b565b600073ffffffffffffffffffffffffffffffffffffffff168173ffffffffffffffffffffffffffffffffffffffff161415610f44576040517f08c379a0000000000000000000000000000000000000000000000000000000008152600401610f3b906130fb565b60405180910390fd5b610f4d816119f9565b50565b60606000610f5d33610a6a565b90506000811415610fe057600067ffffffffffffffff811115610fa9577f4e487b7100000000000000000000000000000000000000000000000000000000600052604160045260246000fd5b604051908082528060200260200182016040528015610fd75781602001602082028036833780820191505090505b50915050611118565b60008167ffffffffffffffff811115611022577f4e487b7100000000000000000000000000000000000000000000000000000000600052604160045260246000fd5b6040519080825280602002602001820160405280156110505781602001602082028036833780820191505090505b509050600060078054905090506000805b8281101561110f573373ffffffffffffffffffffffffffffffffffffffff16611089826109b8565b73ffffffffffffffffffffffffffffffffffffffff1614156110fb57808483815181106110df577f4e487b7100000000000000000000000000000000000000000000000000000000600052603260045260246000fd5b6020026020010181815250506001826110f891906133e9565b91505b60018161110891906133e9565b9050611061565b83955050505050505b90565b600073ffffffffffffffffffffffffffffffffffffffff168273ffffffffffffffffffffffffffffffffffffffff16141561118b576040517f08c379a0000000000000000000000000000000000000000000000000000000008152600401611182906131db565b60405180910390fd5b61119481611e4c565b156111d4576040517f08c379a00000000000000000000000000000000000000000000000000000000081526004016111cb9061313b565b60405180910390fd5b6111e060008383611eb8565b6001600360008473ffffffffffffffffffffffffffffffffffffffff1673ffffffffffffffffffffffffffffffffffffffff168152602001908152602001600020600082825461123091906133e9565b92505081905550816002600083815260200190815260200160002060006101000a81548173ffffffffffffffffffffffffffffffffffffffff021916908373ffffffffffffffffffffffffffffffffffffffff160217905550808273ffffffffffffffffffffffffffffffffffffffff16600073ffffffffffffffffffffffffffffffffffffffff167fddf252ad1be2c89b69c2b068fc378daa952ba7f163c4a11628f55a4df523b3ef60405160405180910390a46112f160008383611ebd565b5050565b60007f01ffc9a7000000000000000000000000000000000000000000000000000000007bffffffffffffffffffffffffffffffffffffffffffffffffffffffff1916827bffffffffffffffffffffffffffffffffffffffffffffffffffffffff1916149050919050565b61136881611e4c565b6113a7576040517f08c379a000000000000000000000000000000000000000000000000000000000815260040161139e9061321b565b60405180910390fd5b50565b600033905090565b816004600083815260200190815260200160002060006101000a81548173ffffffffffffffffffffffffffffffffffffffff021916908373ffffffffffffffffffffffffffffffffffffffff160217905550808273ffffffffffffffffffffffffffffffffffffffff16611425836109b8565b73ffffffffffffffffffffffffffffffffffffffff167f8c5be1e5ebec7d5bd14f71427d1e84f3dd0314c0f7b2291e5b200ac8c7c3b92560405160405180910390a45050565b60008073ffffffffffffffffffffffffffffffffffffffff168273ffffffffffffffffffffffffffffffffffffffff1614156114a657600080fd5b60006114b28585611ec2565b905060006040518060600160405280838152602001878152602001868152509050600781908060018154018082558091505060019003906000526020600020906003020160009091909190915060008201518160000160008201518160000160006101000a81548160ff021916908360ff16021790555060208201518160000160016101000a81548160ff021916908360ff16021790555060408201518160000160026101000a81548160ff021916908360ff16021790555060608201518160000160036101000a81548160ff021916908360ff16021790555060808201518160000160046101000a81548160ff021916908360ff16021790555060a08201518160000160056101000a81548160ff021916908360ff16021790555060c08201518160000160066101000a81548160ff021916908360ff1602179055505050602082015181600101556040820151816002015550506000600160078054905061161b91906134e2565b9050611627858261111b565b7f7b7a487757a29444e1a3c0410ec6c48b4282109a38b177356874747bbb4a5c81858284602001518560400151866000015160405161166a959493929190613028565b60405180910390a18093505050509392505050565b60008061168b836109b8565b90508073ffffffffffffffffffffffffffffffffffffffff168473ffffffffffffffffffffffffffffffffffffffff1614806116cd57506116cc8185610e38565b5b8061170b57508373ffffffffffffffffffffffffffffffffffffffff166116f384610697565b73ffffffffffffffffffffffffffffffffffffffff16145b91505092915050565b8273ffffffffffffffffffffffffffffffffffffffff16611734826109b8565b73ffffffffffffffffffffffffffffffffffffffff161461178a576040517f08c379a00000000000000000000000000000000000000000000000000000000081526004016117819061311b565b60405180910390fd5b600073ffffffffffffffffffffffffffffffffffffffff168273ffffffffffffffffffffffffffffffffffffffff1614156117fa576040517f08c379a00000000000000000000000000000000000000000000000000000000081526004016117f19061315b565b60405180910390fd5b611805838383611eb8565b6118106000826113b2565b6001600360008573ffffffffffffffffffffffffffffffffffffffff1673ffffffffffffffffffffffffffffffffffffffff168152602001908152602001600020600082825461186091906134e2565b925050819055506001600360008473ffffffffffffffffffffffffffffffffffffffff1673ffffffffffffffffffffffffffffffffffffffff16815260200190815260200160002060008282546118b791906133e9565b92505081905550816002600083815260200190815260200160002060006101000a81548173ffffffffffffffffffffffffffffffffffffffff021916908373ffffffffffffffffffffffffffffffffffffffff160217905550808273ffffffffffffffffffffffffffffffffffffffff168473ffffffffffffffffffffffffffffffffffffffff167fddf252ad1be2c89b69c2b068fc378daa952ba7f163c4a11628f55a4df523b3ef60405160405180910390a4611976838383611ebd565b505050565b6119836113aa565b73ffffffffffffffffffffffffffffffffffffffff166119a1610b36565b73ffffffffffffffffffffffffffffffffffffffff16146119f7576040517f08c379a00000000000000000000000000000000000000000000000000000000081526004016119ee906131fb565b60405180910390fd5b565b6000600660009054906101000a900473ffffffffffffffffffffffffffffffffffffffff16905081600660006101000a81548173ffffffffffffffffffffffffffffffffffffffff021916908373ffffffffffffffffffffffffffffffffffffffff1602179055508173ffffffffffffffffffffffffffffffffffffffff168173ffffffffffffffffffffffffffffffffffffffff167f8be0079c531659141344cd1fd0a4f28419497f9722a3daafe3b4186f6b6457e060405160405180910390a35050565b8173ffffffffffffffffffffffffffffffffffffffff168373ffffffffffffffffffffffffffffffffffffffff161415611b2e576040517f08c379a0000000000000000000000000000000000000000000000000000000008152600401611b259061317b565b60405180910390fd5b80600560008573ffffffffffffffffffffffffffffffffffffffff1673ffffffffffffffffffffffffffffffffffffffff16815260200190815260200160002060008473ffffffffffffffffffffffffffffffffffffffff1673ffffffffffffffffffffffffffffffffffffffff16815260200190815260200160002060006101000a81548160ff0219169083151502179055508173ffffffffffffffffffffffffffffffffffffffff168373ffffffffffffffffffffffffffffffffffffffff167f17307eab39ab6107e8899845ad3d59bd9653f200f220920489ca2b5937696c3183604051611c1f919061309e565b60405180910390a3505050565b611c37848484611714565b611c43848484846126a9565b611c82576040517f08c379a0000000000000000000000000000000000000000000000000000000008152600401611c79906130db565b60405180910390fd5b50505050565b606060405180602001604052806000815250905090565b60606000821415611ce7576040518060400160405280600181526020017f30000000000000000000000000000000000000000000000000000000000000008152509050611e47565b600082905060005b60008214611d19578080611d0290613670565b915050600a82611d129190613476565b9150611cef565b60008167ffffffffffffffff811115611d5b577f4e487b7100000000000000000000000000000000000000000000000000000000600052604160045260246000fd5b6040519080825280601f01601f191660200182016040528015611d8d5781602001600182028036833780820191505090505b5090505b60008514611e4057600182611da691906134e2565b9150600a85611db591906136b9565b6030611dc191906133e9565b60f81b818381518110611dfd577f4e487b7100000000000000000000000000000000000000000000000000000000600052603260045260246000fd5b60200101907effffffffffffffffffffffffffffffffffffffffffffffffffffffffffffff1916908160001a905350600a85611e399190613476565b9450611d91565b8093505050505b919050565b60008073ffffffffffffffffffffffffffffffffffffffff166002600084815260200190815260200160002060009054906101000a900473ffffffffffffffffffffffffffffffffffffffff1673ffffffffffffffffffffffffffffffffffffffff1614159050919050565b505050565b505050565b611eca612863565b600060078481548110611f06577f4e487b7100000000000000000000000000000000000000000000000000000000600052603260045260246000fd5b90600052602060002090600302016000016040518060e00160405290816000820160009054906101000a900460ff1660ff1660ff1681526020016000820160019054906101000a900460ff1660ff1660ff1681526020016000820160029054906101000a900460ff1660ff1660ff1681526020016000820160039054906101000a900460ff1660ff1660ff1681526020016000820160049054906101000a900460ff1660ff1660ff1681526020016000820160059054906101000a900460ff1660ff1660ff1681526020016000820160069054906101000a900460ff1660ff1660ff1681525050905060006007848154811061202b577f4e487b7100000000000000000000000000000000000000000000000000000000600052603260045260246000fd5b90600052602060002090600302016000016040518060e00160405290816000820160009054906101000a900460ff1660ff1660ff1681526020016000820160019054906101000a900460ff1660ff1660ff1681526020016000820160029054906101000a900460ff1660ff1660ff1681526020016000820160039054906101000a900460ff1660ff1660ff1681526020016000820160049054906101000a900460ff1660ff1660ff1681526020016000820160059054906101000a900460ff1660ff1660ff1681526020016000820160069054906101000a900460ff1660ff1660ff1681525050905060008260a0015190508160a0015160ff168360a0015160ff16141561216657600460038360a001518560a0015161214b91906134a7565b612155919061343f565b61215f91906136ea565b9050612181565b8160a0015160ff168160ff161015612180578160a0015190505b5b60006040518060e00160405280600060ff168152602001600060ff168152602001600060ff168152602001600060ff168152602001600060ff168152602001600060ff168152602001600060ff16815250905060018460c001516121e5919061343f565b8160c0019060ff16908160ff16815250508360c0015160ff168360c0015160ff16111561222f5760018360c0015161221d919061343f565b8160c0019060ff16908160ff16815250505b60008260ff16141561232a57600460038460000151866000015161225391906134a7565b61225d919061343f565b61226791906136ea565b816000019060ff16908160ff16815250508260200151816020019060ff16908160ff16815250508360400151816040019060ff16908160ff168152505060206001846060015186606001516122bc919061343f565b6122c6919061343f565b6122d091906136ea565b816060019060ff16908160ff16815250506020836080015185608001516122f7919061343f565b61230191906136ea565b816080019060ff16908160ff168152505060008160a0019060ff16908160ff168152505061269c565b60018260ff16141561244b57600460038460000151866000015161234e91906134a7565b612358919061343f565b61236291906136ea565b816000019060ff16908160ff16815250508360200151816020019060ff16908160ff1681525050608080856040015185604001516123a09190613516565b6123aa919061343f565b6123b491906136ea565b816040019060ff16908160ff168152505060206001846060015186606001516123dd919061343f565b6123e7919061343f565b6123f191906136ea565b816060019060ff16908160ff1681525050602083608001518560800151612418919061343f565b61242291906136ea565b816080019060ff16908160ff168152505060018160a0019060ff16908160ff168152505061269b565b60028260ff16141561258757600460038460000151866000015161246f91906134a7565b612479919061343f565b61248391906136ea565b816000019060ff16908160ff16815250506008836020015185602001516124aa919061343f565b6124b491906136ea565b816020019060ff16908160ff1681525050608080856040015185604001516124dc9190613516565b6124e6919061343f565b6124f091906136ea565b816040019060ff16908160ff1681525050602083606001518560600151612517919061343f565b61252191906136ea565b816060019060ff16908160ff16815250506020601f8460800151866080015161254a919061343f565b612554919061343f565b61255e91906136ea565b816080019060ff16908160ff168152505060028160a0019060ff16908160ff168152505061269a565b60038260ff1614156126995760046003846000015186600001516125ab91906134a7565b6125b5919061343f565b6125bf91906136ea565b816000019060ff16908160ff16815250506008836020015185602001516125e6919061343f565b6125f091906136ea565b816020019060ff16908160ff16815250508260400151816040019060ff16908160ff168152505060208360600151856060015161262d919061343f565b61263791906136ea565b816060019060ff16908160ff16815250506020601f84608001518660800151612660919061343f565b61266a919061343f565b61267491906136ea565b816080019060ff16908160ff168152505060038160a0019060ff16908160ff16815250505b5b5b5b8094505050505092915050565b60006126ca8473ffffffffffffffffffffffffffffffffffffffff16612840565b15612833578373ffffffffffffffffffffffffffffffffffffffff1663150b7a026126f36113aa565b8786866040518563ffffffff1660e01b81526004016127159493929190612fdc565b602060405180830381600087803b15801561272f57600080fd5b505af192505050801561276057506040513d601f19601f8201168201806040525081019061275d9190612b56565b60015b6127e3573d8060008114612790576040519150601f19603f3d011682016040523d82523d6000602084013e612795565b606091505b506000815114156127db576040517f08c379a00000000000000000000000000000000000000000000000000000000081526004016127d2906130db565b60405180910390fd5b805181602001fd5b63150b7a0260e01b7bffffffffffffffffffffffffffffffffffffffffffffffffffffffff1916817bffffffffffffffffffffffffffffffffffffffffffffffffffffffff191614915050612838565b600190505b949350505050565b6000808273ffffffffffffffffffffffffffffffffffffffff163b119050919050565b6040518060e00160405280600060ff168152602001600060ff168152602001600060ff168152602001600060ff168152602001600060ff168152602001600060ff168152602001600060ff1681525090565b60006128c86128c38461333c565b613317565b9050828152602081018484840111156128e057600080fd5b6128eb8482856135cb565b509392505050565b60008135905061290281613b2d565b92915050565b60008135905061291781613b44565b92915050565b60008135905061292c81613b5b565b92915050565b60008151905061294181613b5b565b92915050565b600082601f83011261295857600080fd5b81356129688482602086016128b5565b91505092915050565b60008135905061298081613b72565b92915050565b60006020828403121561299857600080fd5b60006129a6848285016128f3565b91505092915050565b600080604083850312156129c257600080fd5b60006129d0858286016128f3565b92505060206129e1858286016128f3565b9150509250929050565b600080600060608486031215612a0057600080fd5b6000612a0e868287016128f3565b9350506020612a1f868287016128f3565b9250506040612a3086828701612971565b9150509250925092565b60008060008060808587031215612a5057600080fd5b6000612a5e878288016128f3565b9450506020612a6f878288016128f3565b9350506040612a8087828801612971565b925050606085013567ffffffffffffffff811115612a9d57600080fd5b612aa987828801612947565b91505092959194509250565b60008060408385031215612ac857600080fd5b6000612ad6858286016128f3565b9250506020612ae785828601612908565b9150509250929050565b60008060408385031215612b0457600080fd5b6000612b12858286016128f3565b9250506020612b2385828601612971565b9150509250929050565b600060208284031215612b3f57600080fd5b6000612b4d8482850161291d565b91505092915050565b600060208284031215612b6857600080fd5b6000612b7684828501612932565b91505092915050565b600060208284031215612b9157600080fd5b6000612b9f84828501612971565b91505092915050565b60008060408385031215612bbb57600080fd5b6000612bc985828601612971565b9250506020612bda85828601612971565b9150509250929050565b6000612bf08383612f70565b60208301905092915050565b612c058161354a565b82525050565b6000612c168261337d565b612c2081856133ab565b9350612c2b8361336d565b8060005b83811015612c5c578151612c438882612be4565b9750612c4e8361339e565b925050600181019050612c2f565b5085935050505092915050565b612c728161355c565b82525050565b6000612c8382613388565b612c8d81856133bc565b9350612c9d8185602086016135da565b612ca6816137d7565b840191505092915050565b6000612cbc82613393565b612cc681856133cd565b9350612cd68185602086016135da565b612cdf816137d7565b840191505092915050565b6000612cf582613393565b612cff81856133de565b9350612d0f8185602086016135da565b80840191505092915050565b6000612d286032836133cd565b9150612d33826137e8565b604082019050919050565b6000612d4b6026836133cd565b9150612d5682613837565b604082019050919050565b6000612d6e6025836133cd565b9150612d7982613886565b604082019050919050565b6000612d91601c836133cd565b9150612d9c826138d5565b602082019050919050565b6000612db46024836133cd565b9150612dbf826138fe565b604082019050919050565b6000612dd76019836133cd565b9150612de28261394d565b602082019050919050565b6000612dfa6029836133cd565b9150612e0582613976565b604082019050919050565b6000612e1d603e836133cd565b9150612e28826139c5565b604082019050919050565b6000612e406020836133cd565b9150612e4b82613a14565b602082019050919050565b6000612e636020836133cd565b9150612e6e82613a3d565b602082019050919050565b6000612e866018836133cd565b9150612e9182613a66565b602082019050919050565b6000612ea96021836133cd565b9150612eb482613a8f565b604082019050919050565b6000612ecc602e836133cd565b9150612ed782613ade565b604082019050919050565b60e082016000820151612ef86000850182612f8e565b506020820151612f0b6020850182612f8e565b506040820151612f1e6040850182612f8e565b506060820151612f316060850182612f8e565b506080820151612f446080850182612f8e565b5060a0820151612f5760a0850182612f8e565b5060c0820151612f6a60c0850182612f8e565b50505050565b612f79816135b4565b82525050565b612f88816135b4565b82525050565b612f97816135be565b82525050565b6000612fa98285612cea565b9150612fb58284612cea565b91508190509392505050565b6000602082019050612fd66000830184612bfc565b92915050565b6000608082019050612ff16000830187612bfc565b612ffe6020830186612bfc565b61300b6040830185612f7f565b818103606083015261301d8184612c78565b905095945050505050565b60006101608201905061303e6000830188612bfc565b61304b6020830187612f7f565b6130586040830186612f7f565b6130656060830185612f7f565b6130726080830184612ee2565b9695505050505050565b600060208201905081810360008301526130968184612c0b565b905092915050565b60006020820190506130b36000830184612c69565b92915050565b600060208201905081810360008301526130d38184612cb1565b905092915050565b600060208201905081810360008301526130f481612d1b565b9050919050565b6000602082019050818103600083015261311481612d3e565b9050919050565b6000602082019050818103600083015261313481612d61565b9050919050565b6000602082019050818103600083015261315481612d84565b9050919050565b6000602082019050818103600083015261317481612da7565b9050919050565b6000602082019050818103600083015261319481612dca565b9050919050565b600060208201905081810360008301526131b481612ded565b9050919050565b600060208201905081810360008301526131d481612e10565b9050919050565b600060208201905081810360008301526131f481612e33565b9050919050565b6000602082019050818103600083015261321481612e56565b9050919050565b6000602082019050818103600083015261323481612e79565b9050919050565b6000602082019050818103600083015261325481612e9c565b9050919050565b6000602082019050818103600083015261327481612ebf565b9050919050565b6000610120820190506132916000830186612ee2565b61329e60e0830185612f7f565b6132ac610100830184612f7f565b949350505050565b60006020820190506132c96000830184612f7f565b92915050565b6000610140820190506132e56000830187612f7f565b6132f26020830186612ee2565b613300610100830185612f7f565b61330e610120830184612f7f565b95945050505050565b6000613321613332565b905061332d828261363f565b919050565b6000604051905090565b600067ffffffffffffffff821115613357576133566137a8565b5b613360826137d7565b9050602081019050919050565b6000819050602082019050919050565b600081519050919050565b600081519050919050565b600081519050919050565b6000602082019050919050565b600082825260208201905092915050565b600082825260208201905092915050565b600082825260208201905092915050565b600081905092915050565b60006133f4826135b4565b91506133ff836135b4565b9250827fffffffffffffffffffffffffffffffffffffffffffffffffffffffffffffffff038211156134345761343361371b565b5b828201905092915050565b600061344a826135be565b9150613455836135be565b92508260ff0382111561346b5761346a61371b565b5b828201905092915050565b6000613481826135b4565b915061348c836135b4565b92508261349c5761349b61374a565b5b828204905092915050565b60006134b2826135be565b91506134bd836135be565b92508160ff04831182151516156134d7576134d661371b565b5b828202905092915050565b60006134ed826135b4565b91506134f8836135b4565b92508282101561350b5761350a61371b565b5b828203905092915050565b6000613521826135be565b915061352c836135be565b92508282101561353f5761353e61371b565b5b828203905092915050565b600061355582613594565b9050919050565b60008115159050919050565b60007fffffffff0000000000000000000000000000000000000000000000000000000082169050919050565b600073ffffffffffffffffffffffffffffffffffffffff82169050919050565b6000819050919050565b600060ff82169050919050565b82818337600083830152505050565b60005b838110156135f85780820151818401526020810190506135dd565b83811115613607576000848401525b50505050565b6000600282049050600182168061362557607f821691505b6020821081141561363957613638613779565b5b50919050565b613648826137d7565b810181811067ffffffffffffffff82111715613667576136666137a8565b5b80604052505050565b600061367b826135b4565b91507fffffffffffffffffffffffffffffffffffffffffffffffffffffffffffffffff8214156136ae576136ad61371b565b5b600182019050919050565b60006136c4826135b4565b91506136cf836135b4565b9250826136df576136de61374a565b5b828206905092915050565b60006136f5826135be565b9150613700836135be565b9250826137105761370f61374a565b5b828206905092915050565b7f4e487b7100000000000000000000000000000000000000000000000000000000600052601160045260246000fd5b7f4e487b7100000000000000000000000000000000000000000000000000000000600052601260045260246000fd5b7f4e487b7100000000000000000000000000000000000000000000000000000000600052602260045260246000fd5b7f4e487b7100000000000000000000000000000000000000000000000000000000600052604160045260246000fd5b6000601f19601f8301169050919050565b7f4552433732313a207472616e7366657220746f206e6f6e20455243373231526560008201527f63656976657220696d706c656d656e7465720000000000000000000000000000602082015250565b7f4f776e61626c653a206e6577206f776e657220697320746865207a65726f206160008201527f6464726573730000000000000000000000000000000000000000000000000000602082015250565b7f4552433732313a207472616e736665722066726f6d20696e636f72726563742060008201527f6f776e6572000000000000000000000000000000000000000000000000000000602082015250565b7f4552433732313a20746f6b656e20616c7265616479206d696e74656400000000600082015250565b7f4552433732313a207472616e7366657220746f20746865207a65726f2061646460008201527f7265737300000000000000000000000000000000000000000000000000000000602082015250565b7f4552433732313a20617070726f766520746f2063616c6c657200000000000000600082015250565b7f4552433732313a2061646472657373207a65726f206973206e6f74206120766160008201527f6c6964206f776e65720000000000000000000000000000000000000000000000602082015250565b7f4552433732313a20617070726f76652063616c6c6572206973206e6f7420746f60008201527f6b656e206f776e6572206e6f7220617070726f76656420666f7220616c6c0000602082015250565b7f4552433732313a206d696e7420746f20746865207a65726f2061646472657373600082015250565b7f4f776e61626c653a2063616c6c6572206973206e6f7420746865206f776e6572600082015250565b7f4552433732313a20696e76616c696420746f6b656e2049440000000000000000600082015250565b7f4552433732313a20617070726f76616c20746f2063757272656e74206f776e6560008201527f7200000000000000000000000000000000000000000000000000000000000000602082015250565b7f4552433732313a2063616c6c6572206973206e6f7420746f6b656e206f776e6560008201527f72206e6f7220617070726f766564000000000000000000000000000000000000602082015250565b613b368161354a565b8114613b4157600080fd5b50565b613b4d8161355c565b8114613b5857600080fd5b50565b613b6481613568565b8114613b6f57600080fd5b50565b613b7b816135b4565b8114613b8657600080fd5b5056fea2646970667358221220460e5998adf6632945f2fafba6ee66fcd0b3d9ce5e24838c25f696af18822c1464736f6c63430008020033",
  "immutableReferences": {},
  "source": "// SPDX-License-Identifier: GPL-3.0\r\n\r\npragma solidity ^0.8.2;\r\n\r\nimport \"@openzeppelin/contracts/token/ERC721/ERC721.sol\";\r\nimport \"@openzeppelin/contracts/access/Ownable.sol\";\r\n\r\ncontract TheFunixCryptoSim is ERC721, Ownable  {\r\n\r\n    // TASK #1: Define Name and Symbol of our Token\r\n    // - Symbol: FCS\r\n    // - Name: TheFunixCryptoSims\r\n    // HINTS:\r\n    // - Call [name] function and [symbol] function to check\r\n    //\r\n    \r\n    // *** START Code here***\r\n    \r\n    constructor() ERC721(\"TheFunixCryptoSims\", \"FCS\") {     \r\n        createGenesis();\r\n    }\r\n    \r\n    // *** END Code here***\r\n\r\n    // This struct will be used to represent the attributes of CryptoSim\r\n    struct SimAttributes {\r\n        // 0 -> 3\r\n        uint8 body;\r\n\r\n        // 0 -> 7\r\n        uint8 eye;\r\n\r\n        // 0 -> 127\r\n        uint8 hairstyle;\r\n\r\n        // 0 -> 31\r\n        uint8 outfit;\r\n\r\n        // 0 -> 31\r\n        uint8 accessory;\r\n\r\n        // 0 -> 3\r\n        uint8 hiddenGenes;\r\n\r\n        // 0 - 255\r\n        uint8 generation;\r\n    }\r\n\r\n    // This struct will be used to represent one sim\r\n    struct Sim {\r\n        SimAttributes attributes;\r\n        uint256 matronId;\r\n        uint256 sireId;\r\n    }\r\n    \r\n    // List of existing sims. Use as CryptoSims' \"database\"\r\n    Sim[] public sims;\r\n    \r\n    // Event that will be emitted whenever a new sim is created\r\n    event Birth(\r\n        address owner,\r\n        uint256 id,\r\n        uint256 matronId,\r\n        uint256 sireId,\r\n        SimAttributes attributes\r\n    );\r\n\r\n    /** @dev Function to determine a sim's characteristics.\r\n      * @param matronId ID of sim's matron (one parent)\r\n      * @param sireId ID of sim's sire (other parent)\r\n      * @return The sim's attributes\r\n      */\r\n    function generateSimGenes(\r\n        uint256 matronId,\r\n        uint256 sireId\r\n    )\r\n        internal\r\n        returns (SimAttributes memory)\r\n    {\r\n        SimAttributes memory matronAttr = sims[matronId].attributes;\r\n        SimAttributes memory sireAttr = sims[sireId].attributes;\r\n\r\n        // TASK #2: Define HiddenGenes X of new Sim\r\n        uint8 x = matronAttr.hiddenGenes; // khoi tao ban dau\r\n        // START Code here\r\n        if (matronAttr.hiddenGenes == sireAttr.hiddenGenes) {\r\n            x = (matronAttr.hiddenGenes*sireAttr.hiddenGenes + 3) % 4;\r\n        } else if (x < sireAttr.hiddenGenes) {\r\n            x = sireAttr.hiddenGenes;\r\n        }\r\n        // END Code here\r\n\r\n        \r\n        // Init new object to store new Sim's attributes \r\n        SimAttributes memory attributes = SimAttributes({\r\n          body: 0,\r\n          eye: 0,\r\n          hairstyle: 0,\r\n          outfit: 0,\r\n          accessory: 0,\r\n          hiddenGenes: 0,\r\n          generation: 0\r\n        });\r\n\r\n        // TASK #3: Calculate new Sim's generation\r\n        attributes.generation = matronAttr.generation + 1; // khoi tao tim max \r\n        if (sireAttr.generation > matronAttr.generation) {\r\n            // START CODE HERE\r\n            attributes.generation = sireAttr.generation + 1;\r\n            // END CODE HERE\r\n        }\r\n\r\n        // TASK #4: Calculate remaining atrributes\r\n        // START CODE HERE\r\n        if (x==0) {\r\n            // define the body of new Sim \r\n            attributes.body = (matronAttr.body*sireAttr.body + 3) % 4;\r\n            // define the eye of new Sim\r\n            attributes.eye = sireAttr.eye;\r\n            // define the hairstyle of new Sim\r\n            attributes.hairstyle = matronAttr.hairstyle;\r\n            // define the outfit of new Sim\r\n            attributes.outfit = (matronAttr.outfit + sireAttr.outfit  + 1) % 32;\r\n            // define the accessory of new Sim\r\n            attributes.accessory = (matronAttr.accessory + sireAttr.accessory) % 32;\r\n            // define the hiddenGene of new Sim\r\n            attributes.hiddenGenes = 0;\r\n        } else if (x==1) {\r\n            // define the body of new Sim \r\n            attributes.body = (matronAttr.body*sireAttr.body + 3) % 4;\r\n            // define the eye of new Sim\r\n            attributes.eye = matronAttr.eye;\r\n            // define the hairstyle of new Sim\r\n            attributes.hairstyle = (sireAttr.hairstyle - matronAttr.hairstyle + 128) % 128;\r\n            // define the outfit of new Sim\r\n            attributes.outfit = (matronAttr.outfit + sireAttr.outfit  + 1) % 32;\r\n            // define the accessory of new Sim\r\n            attributes.accessory = (matronAttr.accessory + sireAttr.accessory) % 32;\r\n            // define the hiddenGene of new Sim\r\n            attributes.hiddenGenes = 1;\r\n        } else if (x==2) {\r\n            // define the body of new Sim \r\n            attributes.body = (matronAttr.body*sireAttr.body + 3) % 4;\r\n            // define the eye of new Sim\r\n            attributes.eye = (matronAttr.eye + sireAttr.eye) % 8;\r\n            // define the hairstyle of new Sim\r\n            attributes.hairstyle = (sireAttr.hairstyle - matronAttr.hairstyle + 128) % 128;\r\n            // define the outfit of new Sim\r\n            attributes.outfit = (matronAttr.outfit + sireAttr.outfit) % 32;\r\n            // define the accessory of new Sim\r\n            attributes.accessory = (matronAttr.accessory + sireAttr.accessory + 31) % 32;\r\n            // define the hiddenGene of new Sim\r\n            attributes.hiddenGenes = 2;\r\n        } else if  (x==3) {\r\n            // define the body of new Sim \r\n            attributes.body = (matronAttr.body*sireAttr.body + 3) % 4;\r\n            // define the eye of new Sim\r\n            attributes.eye = (matronAttr.eye + sireAttr.eye) % 8;\r\n            // define the hairstyle of new Sim\r\n            attributes.hairstyle = sireAttr.hairstyle;\r\n            // define the outfit of new Sim\r\n            attributes.outfit = (matronAttr.outfit + sireAttr.outfit) % 32;\r\n            // define the accessory of new Sim\r\n            attributes.accessory = (matronAttr.accessory + sireAttr.accessory + 31) % 32;\r\n            // define the hiddenGene of new Sim\r\n            attributes.hiddenGenes = 3;\r\n        }\r\n\r\n        // END CODE HERE\r\n\r\n\r\n\r\n        return attributes;\r\n    }\r\n\r\n\r\n    /** @dev Function to create a new sim\r\n      * @param matron ID of new sim's matron (one parent)\r\n      * @param sire ID of new sim's sire (other parent)\r\n      * @param owner Address of new sim's owner\r\n      * @return The new sim's ID\r\n      */\r\n    function createSim(\r\n        uint256 matron,\r\n        uint256 sire,\r\n        address owner\r\n    )\r\n        internal\r\n        returns (uint)\r\n    {\r\n        require(owner != address(0));\r\n\r\n        // Create new sim attributes based on matron and sire\r\n        SimAttributes memory newAtrributes = generateSimGenes(matron, sire);\r\n        \r\n        Sim memory newSim = Sim({\r\n            attributes: newAtrributes,\r\n            matronId: matron,\r\n            sireId: sire\r\n        });\r\n\r\n        // Add new Sim to array of sims\r\n        sims.push(newSim);\r\n        uint256 newSimId =  sims.length -  1;\r\n\r\n        // Create new NFT with ID is New Sim's ID, and owner is defined\r\n        super._mint(owner, newSimId);\r\n\r\n        // Emit Birth event\r\n        emit Birth(\r\n            owner,\r\n            newSimId,\r\n            newSim.matronId,\r\n            newSim.sireId,\r\n            newSim.attributes\r\n        );\r\n        return newSimId;\r\n    }\r\n\r\n\r\n    function createGenesis() internal {\r\n        SimAttributes memory firstAtrributes = SimAttributes({\r\n          body: 0,\r\n          eye: 0,\r\n          hairstyle: 0,\r\n          outfit: 0,\r\n          accessory: 0,\r\n          hiddenGenes: 0,\r\n          generation: 0\r\n        });\r\n\r\n        SimAttributes memory secondAtrributes = SimAttributes({\r\n          body: 3,\r\n          eye: 7,\r\n          hairstyle: 127,\r\n          outfit: 31,\r\n          accessory: 31,\r\n          hiddenGenes: 0,\r\n          generation: 0\r\n        });\r\n        \r\n        sims.push(Sim({\r\n            attributes: firstAtrributes,\r\n            matronId: 0,\r\n            sireId: 0\r\n        }));\r\n\r\n        super._mint(msg.sender, 0);\r\n\r\n        sims.push(Sim({\r\n            attributes: secondAtrributes,\r\n            matronId: 0,\r\n            sireId: 0\r\n        }));\r\n\r\n        super._mint(msg.sender, 1);\r\n    }\r\n\r\n  \r\n    /** @dev Function to allow user to buy a new sim (calls createSim())\r\n      * @return The new sim's ID\r\n      */\r\n    function buySim() external payable returns (uint256) {\r\n        // READ MORE: In the real project, we will check whether 0.02 ether is sent. \r\n        // require(msg.value == 0.02 ether);\r\n        \r\n        return createSim(0, (sims.length - 1) % sims.length, msg.sender);\r\n    }\r\n    \r\n    /** @dev Function to breed 2 sims to create a new one\r\n      * @param matronId ID of new sim's matron (one parent)\r\n      * @param sireId ID of new sim's sire (other parent)\r\n      * @return The new sim's ID\r\n      */\r\n    function breedSim(uint256 matronId, uint256 sireId) external payable returns (uint256) {\r\n        // READ MORE: In the real project, we will check whether 0.02 ether is sent. \r\n        // require(msg.value == 0.05 ether);\r\n        return createSim(matronId, sireId, msg.sender);\r\n    }\r\n    \r\n    /** @dev Function to retrieve a specific sim's details.\r\n      * @param simId ID of the sim who's details will be retrieved\r\n      * @return An array, [sim's ID, sim's genes, matron's ID, sire's ID]\r\n      */\r\n    function getSimDetails(uint256 simId) external view returns (uint256, SimAttributes memory, uint256, uint256) {\r\n        Sim storage sim = sims[simId];\r\n        return (simId, sim.attributes, sim.matronId, sim.sireId);\r\n    }\r\n    \r\n    /** @dev Function to get a list of owned sims' IDs\r\n      * @return A uint array which contains IDs of all owned sims\r\n      */\r\n    function ownedSims() external view returns(uint256[] memory) {\r\n        uint256 simCount = balanceOf(msg.sender);\r\n        if (simCount == 0) {\r\n            return new uint256[](0);\r\n        } else {\r\n            uint256[] memory result = new uint256[](simCount);\r\n            uint256 totalSims = sims.length;\r\n            uint256 resultIndex = 0;\r\n            uint256 simId = 0;\r\n            while (simId < totalSims) {\r\n\r\n                if (ownerOf(simId) == msg.sender) {\r\n                    result[resultIndex] = simId;\r\n                    resultIndex = resultIndex + 1;\r\n                }\r\n\r\n                simId = simId + 1;\r\n            }\r\n            return result;\r\n        }\r\n    }\r\n}",
  "sourcePath": "/home/ubuntu/C3_ASGN4_V2/contracts/CryptoSims.sol",
  "compiler": {
    "name": "solc",
    "version": "0.8.2+commit.661d1103.Emscripten.clang"
  },
  "schemaVersion": "3.4.8",
  "updatedAt": "2022-09-29T02:20:47.180Z",
  "networkType": "ethereum",
  "devdoc": {
    "kind": "dev",
    "methods": {
      "approve(address,uint256)": {
        "details": "See {IERC721-approve}."
      },
      "balanceOf(address)": {
        "details": "See {IERC721-balanceOf}."
      },
      "breedSim(uint256,uint256)": {
        "details": "Function to breed 2 sims to create a new one",
        "params": {
          "matronId": "ID of new sim's matron (one parent)",
          "sireId": "ID of new sim's sire (other parent)"
        },
        "returns": {
          "_0": "The new sim's ID"
        }
      },
      "buySim()": {
        "details": "Function to allow user to buy a new sim (calls createSim())",
        "returns": {
          "_0": "The new sim's ID"
        }
      },
      "getApproved(uint256)": {
        "details": "See {IERC721-getApproved}."
      },
      "getSimDetails(uint256)": {
        "details": "Function to retrieve a specific sim's details.",
        "params": {
          "simId": "ID of the sim who's details will be retrieved"
        },
        "returns": {
          "_0": "An array, [sim's ID, sim's genes, matron's ID, sire's ID]"
        }
      },
      "isApprovedForAll(address,address)": {
        "details": "See {IERC721-isApprovedForAll}."
      },
      "name()": {
        "details": "See {IERC721Metadata-name}."
      },
      "ownedSims()": {
        "details": "Function to get a list of owned sims' IDs",
        "returns": {
          "_0": "A uint array which contains IDs of all owned sims"
        }
      },
      "owner()": {
        "details": "Returns the address of the current owner."
      },
      "ownerOf(uint256)": {
        "details": "See {IERC721-ownerOf}."
      },
      "renounceOwnership()": {
        "details": "Leaves the contract without owner. It will not be possible to call `onlyOwner` functions anymore. Can only be called by the current owner. NOTE: Renouncing ownership will leave the contract without an owner, thereby removing any functionality that is only available to the owner."
      },
      "safeTransferFrom(address,address,uint256)": {
        "details": "See {IERC721-safeTransferFrom}."
      },
      "safeTransferFrom(address,address,uint256,bytes)": {
        "details": "See {IERC721-safeTransferFrom}."
      },
      "setApprovalForAll(address,bool)": {
        "details": "See {IERC721-setApprovalForAll}."
      },
      "supportsInterface(bytes4)": {
        "details": "See {IERC165-supportsInterface}."
      },
      "symbol()": {
        "details": "See {IERC721Metadata-symbol}."
      },
      "tokenURI(uint256)": {
        "details": "See {IERC721Metadata-tokenURI}."
      },
      "transferFrom(address,address,uint256)": {
        "details": "See {IERC721-transferFrom}."
      },
      "transferOwnership(address)": {
        "details": "Transfers ownership of the contract to a new account (`newOwner`). Can only be called by the current owner."
      }
    },
    "version": 1
  },
  "userdoc": {
    "kind": "user",
    "methods": {},
    "version": 1
  }
}