{
  "contractName": "Auction",
  "abi": [
    {
      "constant": true,
      "inputs": [],
      "name": "rule",
      "outputs": [
        {
          "name": "startingPrice",
          "type": "uint8"
        },
        {
          "name": "minimumStep",
          "type": "uint8"
        }
      ],
      "payable": false,
      "stateMutability": "view",
      "type": "function"
    },
    {
      "constant": true,
      "inputs": [],
      "name": "auctioneer",
      "outputs": [
        {
          "name": "",
          "type": "address"
        }
      ],
      "payable": false,
      "stateMutability": "view",
      "type": "function"
    },
    {
      "constant": true,
      "inputs": [],
      "name": "currentPrice",
      "outputs": [
        {
          "name": "",
          "type": "uint8"
        }
      ],
      "payable": false,
      "stateMutability": "view",
      "type": "function"
    },
    {
      "constant": true,
      "inputs": [],
      "name": "currentWinner",
      "outputs": [
        {
          "name": "",
          "type": "address"
        }
      ],
      "payable": false,
      "stateMutability": "view",
      "type": "function"
    },
    {
      "constant": true,
      "inputs": [],
      "name": "state",
      "outputs": [
        {
          "name": "",
          "type": "uint8"
        }
      ],
      "payable": false,
      "stateMutability": "view",
      "type": "function"
    },
    {
      "constant": true,
      "inputs": [],
      "name": "announcementTimes",
      "outputs": [
        {
          "name": "",
          "type": "uint8"
        }
      ],
      "payable": false,
      "stateMutability": "view",
      "type": "function"
    },
    {
      "constant": true,
      "inputs": [
        {
          "name": "",
          "type": "address"
        }
      ],
      "name": "bidders",
      "outputs": [
        {
          "name": "token",
          "type": "uint8"
        },
        {
          "name": "deposit",
          "type": "uint8"
        }
      ],
      "payable": false,
      "stateMutability": "view",
      "type": "function"
    },
    {
      "inputs": [
        {
          "name": "_startingPrice",
          "type": "uint8"
        },
        {
          "name": "_minimumStep",
          "type": "uint8"
        }
      ],
      "payable": false,
      "stateMutability": "nonpayable",
      "type": "constructor"
    },
    {
      "constant": false,
      "inputs": [
        {
          "name": "_account",
          "type": "address"
        },
        {
          "name": "_token",
          "type": "uint8"
        }
      ],
      "name": "register",
      "outputs": [],
      "payable": false,
      "stateMutability": "nonpayable",
      "type": "function"
    },
    {
      "constant": false,
      "inputs": [],
      "name": "startSession",
      "outputs": [],
      "payable": false,
      "stateMutability": "nonpayable",
      "type": "function"
    },
    {
      "constant": false,
      "inputs": [
        {
          "name": "_price",
          "type": "uint8"
        }
      ],
      "name": "bid",
      "outputs": [],
      "payable": false,
      "stateMutability": "nonpayable",
      "type": "function"
    },
    {
      "constant": false,
      "inputs": [],
      "name": "announce",
      "outputs": [],
      "payable": false,
      "stateMutability": "nonpayable",
      "type": "function"
    },
    {
      "constant": false,
      "inputs": [],
      "name": "getDeposit",
      "outputs": [],
      "payable": false,
      "stateMutability": "nonpayable",
      "type": "function"
    }
  ],
  "bytecode": "0x608060405260008060006101000a81548160ff0219169083600381111561002257fe5b021790555060008060016101000a81548160ff021916908360ff16021790555060008060026101000a81548160ff021916908360ff1602179055506000600360146101000a81548161ffff021916908361ffff16021790555034801561008757600080fd5b50604051604080610c6d833981018060405281019080805190602001909291908051906020019092919050505033600360006101000a81548173ffffffffffffffffffffffffffffffffffffffff021916908373ffffffffffffffffffffffffffffffffffffffff16021790555081600160000160006101000a81548160ff021916908360ff16021790555080600160000160016101000a81548160ff021916908360ff16021790555081600060026101000a81548160ff021916908360ff1602179055505050610b108061015d6000396000f3006080604052600436106100ba576000357c0100000000000000000000000000000000000000000000000000000000900463ffffffff16806307e49598146100bf57806325e3d5221461010f57806333500e261461014d5780635ec2c7bf1461017d5780638f970df0146101d45780639d1b464a146101eb578063aabe2fe31461021c578063c19d93fb14610273578063c399ec88146102ac578063e4f8c1b6146102c3578063fcc8f793146102f4578063fe0ae1651461035e575b600080fd5b3480156100cb57600080fd5b5061010d600480360381019080803573ffffffffffffffffffffffffffffffffffffffff169060200190929190803560ff169060200190929190505050610375565b005b34801561011b57600080fd5b50610124610489565b604051808360ff1660ff1681526020018260ff1660ff1681526020019250505060405180910390f35b34801561015957600080fd5b5061017b600480360381019080803560ff1690602001909291905050506104b5565b005b34801561018957600080fd5b506101926106ac565b604051808273ffffffffffffffffffffffffffffffffffffffff1673ffffffffffffffffffffffffffffffffffffffff16815260200191505060405180910390f35b3480156101e057600080fd5b506101e96106d2565b005b3480156101f757600080fd5b506102006107d6565b604051808260ff1660ff16815260200191505060405180910390f35b34801561022857600080fd5b506102316107e9565b604051808273ffffffffffffffffffffffffffffffffffffffff1673ffffffffffffffffffffffffffffffffffffffff16815260200191505060405180910390f35b34801561027f57600080fd5b5061028861080f565b6040518082600381111561029857fe5b60ff16815260200191505060405180910390f35b3480156102b857600080fd5b506102c1610821565b005b3480156102cf57600080fd5b506102d86109dd565b604051808260ff1660ff16815260200191505060405180910390f35b34801561030057600080fd5b50610335600480360381019080803573ffffffffffffffffffffffffffffffffffffffff1690602001909291905050506109f0565b604051808360ff1660ff1681526020018260ff1660ff1681526020019250505060405180910390f35b34801561036a57600080fd5b50610373610a2e565b005b6000600360009054906101000a900473ffffffffffffffffffffffffffffffffffffffff1673ffffffffffffffffffffffffffffffffffffffff163373ffffffffffffffffffffffffffffffffffffffff161415156103d357600080fd5b60008060038111156103e157fe5b6000809054906101000a900460ff1660038111156103fb57fe5b14151561040757600080fd5b600460008573ffffffffffffffffffffffffffffffffffffffff1673ffffffffffffffffffffffffffffffffffffffff1681526020019081526020016000209150828260000160006101000a81548160ff021916908360ff16021790555060008260000160016101000a81548160ff021916908360ff16021790555050505050565b60018060000160009054906101000a900460ff16908060000160019054906101000a900460ff16905082565b60008060018060038111156104c657fe5b6000809054906101000a900460ff1660038111156104e057fe5b1415156104ec57600080fd5b339250600460008473ffffffffffffffffffffffffffffffffffffffff1673ffffffffffffffffffffffffffffffffffffffff1681526020019081526020016000209150600160000160019054906101000a900460ff16600060029054906101000a900460ff160160ff168460ff16101561056657600080fd5b8360ff168260000160019054906101000a900460ff168360000160009054906101000a900460ff160160ff16101561059d57600080fd5b838260000160009054906101000a900460ff16038260000160006101000a81548160ff021916908360ff160217905550838260000160018282829054906101000a900460ff160192506101000a81548160ff021916908360ff1602179055508360ff16600360148282829054906101000a900461ffff160192506101000a81548161ffff021916908361ffff16021790555083600060026101000a81548160ff021916908360ff16021790555082600260006101000a81548173ffffffffffffffffffffffffffffffffffffffff021916908373ffffffffffffffffffffffffffffffffffffffff16021790555060008060016101000a81548160ff021916908360ff16021790555050505050565b600360009054906101000a900473ffffffffffffffffffffffffffffffffffffffff1681565b600360009054906101000a900473ffffffffffffffffffffffffffffffffffffffff1673ffffffffffffffffffffffffffffffffffffffff163373ffffffffffffffffffffffffffffffffffffffff1614151561072e57600080fd5b600180600381111561073c57fe5b6000809054906101000a900460ff16600381111561075657fe5b14151561076257600080fd5b6000600181819054906101000a900460ff168092919060010191906101000a81548160ff021916908360ff160217905550506003600060019054906101000a900460ff1660ff1611156107d35760026000806101000a81548160ff021916908360038111156107cd57fe5b02179055505b50565b600060029054906101000a900460ff1681565b600260009054906101000a900473ffffffffffffffffffffffffffffffffffffffff1681565b6000809054906101000a900460ff1681565b6000600280600381111561083157fe5b6000809054906101000a900460ff16600381111561084b57fe5b14151561085757600080fd5b600260009054906101000a900473ffffffffffffffffffffffffffffffffffffffff1673ffffffffffffffffffffffffffffffffffffffff163373ffffffffffffffffffffffffffffffffffffffff16141515156108b457600080fd5b600460003373ffffffffffffffffffffffffffffffffffffffff1673ffffffffffffffffffffffffffffffffffffffff16815260200190815260200160002091508160000160019054906101000a900460ff1660ff16600360148282829054906101000a900461ffff160392506101000a81548161ffff021916908361ffff1602179055508160000160019054906101000a900460ff168260000160008282829054906101000a900460ff160192506101000a81548160ff021916908360ff16021790555060008260000160016101000a81548160ff021916908360ff1602179055506000600360149054906101000a900461ffff1661ffff161115156109d95760036000806101000a81548160ff021916908360038111156109d357fe5b02179055505b5050565b600060019054906101000a900460ff1681565b60046020528060005260406000206000915090508060000160009054906101000a900460ff16908060000160019054906101000a900460ff16905082565b600360009054906101000a900473ffffffffffffffffffffffffffffffffffffffff1673ffffffffffffffffffffffffffffffffffffffff163373ffffffffffffffffffffffffffffffffffffffff16141515610a8a57600080fd5b6000806003811115610a9857fe5b6000809054906101000a900460ff166003811115610ab257fe5b141515610abe57600080fd5b60016000806101000a81548160ff02191690836003811115610adc57fe5b0217905550505600a165627a7a72305820c3b9ab0654d8dc666445801bcaadb7631e42109377aebf1b180598cc8228dfa70029",
  "source": "pragma solidity ^0.4.17;\r\n\r\ncontract Auction {\r\n    \r\n    // Data\r\n    \r\n    // Structure to hold details of Bidder\r\n    struct IBidder {\r\n        uint8 token;\r\n        uint8 deposit;\r\n    }\r\n    \r\n    // Structure to hold details of Rule\r\n    struct IRule {\r\n        uint8 startingPrice;\r\n        uint8 minimumStep;\r\n    }\r\n    \r\n    \r\n    // State Enum to define Auction's state\r\n    enum State { CREATED, STARTED, CLOSING, CLOSED }\r\n    \r\n    State public state = State.CREATED; // State of Auction\r\n    \r\n    uint8 public announcementTimes = 0; // Number of announcements\r\n    uint8 public currentPrice = 0; // Latest price is bid.\r\n    IRule public rule; // Rule of this session\r\n    address public currentWinner; // Current Winner, who bid the highest price.\r\n    address public auctioneer;\r\n    \r\n    uint16 private totalDeposit = 0;\r\n    \r\n    mapping(address => IBidder) public bidders; // Mapping to hold bidders' information\r\n    \r\n    function Auction(uint8 _startingPrice, uint8 _minimumStep) public {\r\n        \r\n        // Task #1 - Initialize the Smart contract\r\n        // + Initialize Auctioneer with address of smart contract's owner\r\n        // + Set the starting price & minimumStep\r\n        // + Set the current price as the Starting price\r\n      \r\n        // ** Start code here. 4 lines approximately. ** /\r\n        auctioneer = msg.sender;\r\n        rule.startingPrice = _startingPrice;\r\n        rule.minimumStep = _minimumStep;\r\n        currentPrice = _startingPrice;\r\n        // ** End code here. ** /\r\n    }\r\n    \r\n    \r\n    // Register new Bidder\r\n    function register(address _account, uint8 _token) public onlyAuctioneer stateCheck(State.CREATED){ \r\n\r\n                \r\n        // Task #2 - Register the bidder\r\n        // + Initialize a Bidder with address and token are given.\r\n        // + Initialize a Bidder's deposit with 0\r\n        \r\n        // ** Start code here. 3 lines approximately. ** /\r\n        IBidder storage currentBidder = bidders[_account];\r\n        currentBidder.token  = _token;\r\n        currentBidder.deposit = 0;\r\n\r\n       // ** End code here. **/\r\n    }\r\n\r\n    \r\n    // Start the session.\r\n    function startSession() public onlyAuctioneer stateCheck(State.CREATED){\r\n        state = State.STARTED;\r\n    }\r\n    \r\n\r\n    \r\n    function bid(uint8 _price) public stateCheck(State.STARTED){\r\n        \r\n        // Task #3 - Bid by Bidders\r\n        // + Check the price with currentPirce and minimumStep. Revert if invalid.\r\n        // + Check if the Bidder has enough token to bid. Revert if invalid.\r\n        // + Move token to Deposit.\r\n        \r\n        address bidderAddr = msg.sender;\r\n        IBidder storage currentBidder = bidders[bidderAddr];\r\n  \r\n        // ** Start code here.  ** /\r\n        if(_price < currentPrice + rule.minimumStep ) revert();\r\n        if(currentBidder.token + currentBidder.deposit < _price) revert();\r\n            \r\n        currentBidder.token = currentBidder.token - _price;\r\n        currentBidder.deposit += _price;\r\n        // Tracking deposit\r\n        totalDeposit += _price;\r\n \r\n        // ** End code here. **/\r\n        \r\n\r\n        // Update the price and the winner after this bid.\r\n        currentPrice = _price;\r\n        currentWinner = bidderAddr;\r\n        \r\n        // Reset the Annoucements Counter\r\n        announcementTimes = 0;\r\n    }\r\n    \r\n    function announce() public onlyAuctioneer stateCheck(State.STARTED){\r\n        \r\n        // Task #4 - Handle announcement.\r\n        // + When Auctioneer annouce, increase the counter.\r\n        // + When Auctioneer annouced more than 3 times, switch session to Closing state.\r\n        \r\n        // ** Start code here.  ** /\r\n       announcementTimes++;\r\n       if(announcementTimes > 3) state = State.CLOSING;\r\n       \r\n        // ** End code here. **/\r\n    }\r\n    \r\n    function getDeposit() public stateCheck(State.CLOSING){\r\n        \r\n        // Task #5 - Handle get Deposit.\r\n        // + Allow bidders (except Winner) to withdraw their deposit \r\n        // + When all bidders' deposit are withdrew, close the session \r\n        \r\n        // ** Start code here.  ** /\r\n        // HINT: Remember to decrease totalDeposit.\r\n        require(msg.sender != currentWinner);\r\n        IBidder storage currentBidder = bidders[msg.sender];\r\n\r\n        totalDeposit -= currentBidder.deposit;\r\n        currentBidder.token += currentBidder.deposit;\r\n        currentBidder.deposit = 0;\r\n        \r\n       // ** End code here ** /\r\n       \r\n       if (totalDeposit <= 0) {\r\n           state = State.CLOSED;\r\n       }\r\n    }\r\n    // modifier onlyAuctioneer\r\n    modifier onlyAuctioneer{\r\n        require(msg.sender == auctioneer);\r\n        _;\r\n    }\r\n    modifier stateCheck(State currentState){\r\n        require(state == currentState);\r\n        _;\r\n    }\r\n}\r\n\r\n\r\n\r\n\r\n// PART 2 - Using Modifier to:\r\n// - Check if the action (startSession, register, bid, annoucement, getDeposit) can be done in current State.\r\n// - Check if the current user can do the action.\r\n\r\n",
  "sourcePath": "/home/ubuntu/C3_ASGN3/contracts/Auction.sol",
  "compiler": {
    "name": "solc",
    "version": "0.4.26+commit.4563c3fc.Emscripten.clang"
  },
  "schemaVersion": "3.4.8",
  "updatedAt": "2022-09-27T03:51:12.086Z",
  "networkType": "ethereum",
  "devdoc": {
    "methods": {}
  },
  "userdoc": {
    "methods": {}
  }
}